{
  "address": "0x5C7cC024A799482b0237aBc68a5B347fa048caBB",
  "abi": [
    {
      "anonymous": false,
      "inputs": [
        {
          "indexed": false,
          "internalType": "uint8",
          "name": "version",
          "type": "uint8"
        }
      ],
      "name": "Initialized",
      "type": "event"
    },
    {
      "anonymous": false,
      "inputs": [
        {
          "indexed": true,
          "internalType": "address",
          "name": "previousOwner",
          "type": "address"
        },
        {
          "indexed": true,
          "internalType": "address",
          "name": "newOwner",
          "type": "address"
        }
      ],
      "name": "OwnershipTransferred",
      "type": "event"
    },
    {
      "inputs": [
        {
          "internalType": "address",
          "name": "dapp",
          "type": "address"
        }
      ],
      "name": "addBlack",
      "outputs": [],
      "stateMutability": "nonpayable",
      "type": "function"
    },
    {
      "inputs": [
        {
          "internalType": "address",
          "name": "dapp",
          "type": "address"
        }
      ],
      "name": "addWhite",
      "outputs": [],
      "stateMutability": "nonpayable",
      "type": "function"
    },
    {
      "inputs": [],
      "name": "initialize",
      "outputs": [],
      "stateMutability": "nonpayable",
      "type": "function"
    },
    {
      "inputs": [
        {
          "internalType": "address",
          "name": "dapp",
          "type": "address"
        }
      ],
      "name": "isBanned",
      "outputs": [
        {
          "internalType": "bool",
          "name": "",
          "type": "bool"
        }
      ],
      "stateMutability": "view",
      "type": "function"
    },
    {
      "inputs": [],
      "name": "mode",
      "outputs": [
        {
          "internalType": "enum Banned.BannedMode",
          "name": "",
          "type": "uint8"
        }
      ],
      "stateMutability": "view",
      "type": "function"
    },
    {
      "inputs": [],
      "name": "owner",
      "outputs": [
        {
          "internalType": "address",
          "name": "",
          "type": "address"
        }
      ],
      "stateMutability": "view",
      "type": "function"
    },
    {
      "inputs": [
        {
          "internalType": "address",
          "name": "dapp",
          "type": "address"
        }
      ],
      "name": "removeBlack",
      "outputs": [],
      "stateMutability": "nonpayable",
      "type": "function"
    },
    {
      "inputs": [
        {
          "internalType": "address",
          "name": "dapp",
          "type": "address"
        }
      ],
      "name": "removeWhite",
      "outputs": [],
      "stateMutability": "nonpayable",
      "type": "function"
    },
    {
      "inputs": [],
      "name": "renounceOwnership",
      "outputs": [],
      "stateMutability": "nonpayable",
      "type": "function"
    },
    {
      "inputs": [
        {
          "internalType": "enum Banned.BannedMode",
          "name": "_mode",
          "type": "uint8"
        }
      ],
      "name": "setMode",
      "outputs": [],
      "stateMutability": "nonpayable",
      "type": "function"
    },
    {
      "inputs": [
        {
          "internalType": "address",
          "name": "newOwner",
          "type": "address"
        }
      ],
      "name": "transferOwnership",
      "outputs": [],
      "stateMutability": "nonpayable",
      "type": "function"
    }
  ],
  "transactionHash": "0xf1fab7cac7cbded4580dbcaace2a44373e60a3ed7a721ba6c8c821347b876aae",
  "args": [],
  "numDeployments": 2,
  "solcInputHash": "aa5105475dc7b48d8c02452d30624a8d",
  "bytecode": "0x608060405234801561001057600080fd5b50610995806100206000396000f3fe608060405234801561001057600080fd5b50600436106100c95760003560e01c80638da5cb5b11610081578063dad69c201161005b578063dad69c2014610187578063eb794dd71461019a578063f2fde38b146101ad57600080fd5b80638da5cb5b1461012957806397f735d514610151578063d283859d1461017457600080fd5b8063715018a6116100b2578063715018a6146101065780638129fc1c1461010e5780638b09832d1461011657600080fd5b806321175b4a146100ce578063295a5212146100e3575b600080fd5b6100e16100dc366004610879565b6101c0565b005b6065546100f09060ff1681565b6040516100fd91906108b0565b60405180910390f35b6100e16101ef565b6100e1610203565b6100e16101243660046108d8565b610335565b60335460405173ffffffffffffffffffffffffffffffffffffffff90911681526020016100fd565b61016461015f3660046108d8565b61034c565b60405190151581526020016100fd565b6100e16101823660046108d8565b610401565b6100e16101953660046108d8565b610414565b6100e16101a83660046108d8565b610427565b6100e16101bb3660046108d8565b61043a565b6101c86104d4565b6065805482919060ff191660018360038111156101e7576101e761089a565b021790555050565b6101f76104d4565b610201600061053b565b565b600054610100900460ff16158080156102235750600054600160ff909116105b8061023d5750303b15801561023d575060005460ff166001145b6102b45760405162461bcd60e51b815260206004820152602e60248201527f496e697469616c697a61626c653a20636f6e747261637420697320616c72656160448201527f647920696e697469616c697a656400000000000000000000000000000000000060648201526084015b60405180910390fd5b6000805460ff1916600117905580156102d7576000805461ff0019166101001790555b6102df6105b2565b6065805460ff191660021790558015610332576000805461ff0019169055604051600181527f7f26b83ff96e1f2b6a682f133852f6798a09c465da95921460cefb38474024989060200160405180910390a15b50565b61033d6104d4565b610348606682610637565b5050565b6000808060655460ff1660038111156103675761036761089a565b141561038057610378606684610660565b1590506103fb565b600160655460ff1660038111156103995761039961089a565b14156103b1576103aa606884610660565b90506103fb565b600260655460ff1660038111156103ca576103ca61089a565b14156103d8575060006103fb565b600360655460ff1660038111156103f1576103f161089a565b14156103fb575060015b92915050565b6104096104d4565b61034860688261068f565b61041c6104d4565b61034860668261068f565b61042f6104d4565b610348606882610637565b6104426104d4565b73ffffffffffffffffffffffffffffffffffffffff81166104cb5760405162461bcd60e51b815260206004820152602660248201527f4f776e61626c653a206e6577206f776e657220697320746865207a65726f206160448201527f646472657373000000000000000000000000000000000000000000000000000060648201526084016102ab565b6103328161053b565b60335473ffffffffffffffffffffffffffffffffffffffff1633146102015760405162461bcd60e51b815260206004820181905260248201527f4f776e61626c653a2063616c6c6572206973206e6f7420746865206f776e657260448201526064016102ab565b6033805473ffffffffffffffffffffffffffffffffffffffff8381167fffffffffffffffffffffffff0000000000000000000000000000000000000000831681179093556040519116919082907f8be0079c531659141344cd1fd0a4f28419497f9722a3daafe3b4186f6b6457e090600090a35050565b600054610100900460ff1661062f5760405162461bcd60e51b815260206004820152602b60248201527f496e697469616c697a61626c653a20636f6e7472616374206973206e6f74206960448201527f6e697469616c697a696e6700000000000000000000000000000000000000000060648201526084016102ab565b6102016106b1565b60006106598373ffffffffffffffffffffffffffffffffffffffff8416610737565b9392505050565b73ffffffffffffffffffffffffffffffffffffffff811660009081526001830160205260408120541515610659565b60006106598373ffffffffffffffffffffffffffffffffffffffff8416610786565b600054610100900460ff1661072e5760405162461bcd60e51b815260206004820152602b60248201527f496e697469616c697a61626c653a20636f6e7472616374206973206e6f74206960448201527f6e697469616c697a696e6700000000000000000000000000000000000000000060648201526084016102ab565b6102013361053b565b600081815260018301602052604081205461077e575081546001818101845560008481526020808220909301849055845484825282860190935260409020919091556103fb565b5060006103fb565b6000818152600183016020526040812054801561086f5760006107aa60018361090e565b85549091506000906107be9060019061090e565b90508181146108235760008660000182815481106107de576107de610933565b906000526020600020015490508087600001848154811061080157610801610933565b6000918252602080832090910192909255918252600188019052604090208390555b855486908061083457610834610949565b6001900381819060005260206000200160009055905585600101600086815260200190815260200160002060009055600193505050506103fb565b60009150506103fb565b60006020828403121561088b57600080fd5b81356004811061065957600080fd5b634e487b7160e01b600052602160045260246000fd5b60208101600483106108d257634e487b7160e01b600052602160045260246000fd5b91905290565b6000602082840312156108ea57600080fd5b813573ffffffffffffffffffffffffffffffffffffffff8116811461065957600080fd5b60008282101561092e57634e487b7160e01b600052601160045260246000fd5b500390565b634e487b7160e01b600052603260045260246000fd5b634e487b7160e01b600052603160045260246000fdfea2646970667358221220b32b696a359f9a1d0c7eb39d3b99883e0c1ad8872ea6d6dfbf975405a8f9a65064736f6c63430008090033",
  "devdoc": {
    "kind": "dev",
    "methods": {
      "owner()": {
        "details": "Returns the address of the current owner."
      },
      "renounceOwnership()": {
        "details": "Leaves the contract without owner. It will not be possible to call `onlyOwner` functions anymore. Can only be called by the current owner. NOTE: Renouncing ownership will leave the contract without an owner, thereby removing any functionality that is only available to the owner."
      },
      "transferOwnership(address)": {
        "details": "Transfers ownership of the contract to a new account (`newOwner`). Can only be called by the current owner."
      }
    },
    "version": 1
  },
  "userdoc": {
    "kind": "user",
    "methods": {},
    "version": 1
  },
  "storageLayout": {
    "storage": [
      {
        "astId": 138,
        "contract": "contracts/Banned.sol:Banned",
        "label": "_initialized",
        "offset": 0,
        "slot": "0",
        "type": "t_uint8"
      },
      {
        "astId": 141,
        "contract": "contracts/Banned.sol:Banned",
        "label": "_initializing",
        "offset": 1,
        "slot": "0",
        "type": "t_bool"
      },
      {
        "astId": 566,
        "contract": "contracts/Banned.sol:Banned",
        "label": "__gap",
        "offset": 0,
        "slot": "1",
        "type": "t_array(t_uint256)50_storage"
      },
      {
        "astId": 10,
        "contract": "contracts/Banned.sol:Banned",
        "label": "_owner",
        "offset": 0,
        "slot": "51",
        "type": "t_address"
      },
      {
        "astId": 130,
        "contract": "contracts/Banned.sol:Banned",
        "label": "__gap",
        "offset": 0,
        "slot": "52",
        "type": "t_array(t_uint256)49_storage"
      },
      {
        "astId": 1184,
        "contract": "contracts/Banned.sol:Banned",
        "label": "mode",
        "offset": 0,
        "slot": "101",
        "type": "t_enum(BannedMode)1181"
      },
      {
        "astId": 1187,
        "contract": "contracts/Banned.sol:Banned",
        "label": "whiteList",
        "offset": 0,
        "slot": "102",
        "type": "t_struct(AddressSet)879_storage"
      },
      {
        "astId": 1190,
        "contract": "contracts/Banned.sol:Banned",
        "label": "blackList",
        "offset": 0,
        "slot": "104",
        "type": "t_struct(AddressSet)879_storage"
      }
    ],
    "types": {
      "t_address": {
        "encoding": "inplace",
        "label": "address",
        "numberOfBytes": "20"
      },
      "t_array(t_bytes32)dyn_storage": {
        "base": "t_bytes32",
        "encoding": "dynamic_array",
        "label": "bytes32[]",
        "numberOfBytes": "32"
      },
      "t_array(t_uint256)49_storage": {
        "base": "t_uint256",
        "encoding": "inplace",
        "label": "uint256[49]",
        "numberOfBytes": "1568"
      },
      "t_array(t_uint256)50_storage": {
        "base": "t_uint256",
        "encoding": "inplace",
        "label": "uint256[50]",
        "numberOfBytes": "1600"
      },
      "t_bool": {
        "encoding": "inplace",
        "label": "bool",
        "numberOfBytes": "1"
      },
      "t_bytes32": {
        "encoding": "inplace",
        "label": "bytes32",
        "numberOfBytes": "32"
      },
      "t_enum(BannedMode)1181": {
        "encoding": "inplace",
        "label": "enum Banned.BannedMode",
        "numberOfBytes": "1"
      },
      "t_mapping(t_bytes32,t_uint256)": {
        "encoding": "mapping",
        "key": "t_bytes32",
        "label": "mapping(bytes32 => uint256)",
        "numberOfBytes": "32",
        "value": "t_uint256"
      },
      "t_struct(AddressSet)879_storage": {
        "encoding": "inplace",
        "label": "struct EnumerableSet.AddressSet",
        "members": [
          {
            "astId": 878,
            "contract": "contracts/Banned.sol:Banned",
            "label": "_inner",
            "offset": 0,
            "slot": "0",
            "type": "t_struct(Set)578_storage"
          }
        ],
        "numberOfBytes": "64"
      },
      "t_struct(Set)578_storage": {
        "encoding": "inplace",
        "label": "struct EnumerableSet.Set",
        "members": [
          {
            "astId": 573,
            "contract": "contracts/Banned.sol:Banned",
            "label": "_values",
            "offset": 0,
            "slot": "0",
            "type": "t_array(t_bytes32)dyn_storage"
          },
          {
            "astId": 577,
            "contract": "contracts/Banned.sol:Banned",
            "label": "_indexes",
            "offset": 0,
            "slot": "1",
            "type": "t_mapping(t_bytes32,t_uint256)"
          }
        ],
        "numberOfBytes": "64"
      },
      "t_uint256": {
        "encoding": "inplace",
        "label": "uint256",
        "numberOfBytes": "32"
      },
      "t_uint8": {
        "encoding": "inplace",
        "label": "uint8",
        "numberOfBytes": "1"
      }
    }
  }
}